{
  "address": "0xC906db5f67cC6dcA0C97c60174edb777Ca5Fa2e0",
  "abi": [
    {
      "inputs": [
        {
          "internalType": "contract DebtManager",
          "name": "debtManager_",
          "type": "address"
        },
        {
          "internalType": "contract IUniswapQuoter",
          "name": "uniswapV3Quoter_",
          "type": "address"
        }
      ],
      "stateMutability": "nonpayable",
      "type": "constructor"
    },
    {
      "inputs": [],
      "name": "InvalidPreview",
      "type": "error"
    },
    {
      "anonymous": false,
      "inputs": [
        {
          "indexed": false,
          "internalType": "uint8",
          "name": "version",
          "type": "uint8"
        }
      ],
      "name": "Initialized",
      "type": "event"
    },
    {
      "inputs": [],
      "name": "debtManager",
      "outputs": [
        {
          "internalType": "contract DebtManager",
          "name": "",
          "type": "address"
        }
      ],
      "stateMutability": "view",
      "type": "function"
    },
    {
      "inputs": [
        {
          "components": [
            {
              "internalType": "address",
              "name": "tokenA",
              "type": "address"
            },
            {
              "internalType": "address",
              "name": "tokenB",
              "type": "address"
            }
          ],
          "internalType": "struct Pool[]",
          "name": "pools",
          "type": "tuple[]"
        },
        {
          "internalType": "uint24[]",
          "name": "fees",
          "type": "uint24[]"
        }
      ],
      "name": "initialize",
      "outputs": [],
      "stateMutability": "nonpayable",
      "type": "function"
    },
    {
      "inputs": [
        {
          "internalType": "contract Market",
          "name": "marketDeposit",
          "type": "address"
        },
        {
          "internalType": "contract Market",
          "name": "marketBorrow",
          "type": "address"
        },
        {
          "internalType": "address",
          "name": "account",
          "type": "address"
        },
        {
          "internalType": "uint256",
          "name": "minHealthFactor",
          "type": "uint256"
        }
      ],
      "name": "leverage",
      "outputs": [
        {
          "components": [
            {
              "internalType": "uint256",
              "name": "ratio",
              "type": "uint256"
            },
            {
              "internalType": "uint256",
              "name": "borrow",
              "type": "uint256"
            },
            {
              "internalType": "uint256",
              "name": "deposit",
              "type": "uint256"
            },
            {
              "internalType": "int256",
              "name": "principal",
              "type": "int256"
            },
            {
              "internalType": "uint256",
              "name": "maxRatio",
              "type": "uint256"
            },
            {
              "internalType": "uint256",
              "name": "minDeposit",
              "type": "uint256"
            },
            {
              "internalType": "uint256",
              "name": "maxWithdraw",
              "type": "uint256"
            },
            {
              "components": [
                {
                  "internalType": "address",
                  "name": "token0",
                  "type": "address"
                },
                {
                  "internalType": "address",
                  "name": "token1",
                  "type": "address"
                },
                {
                  "internalType": "uint24",
                  "name": "fee",
                  "type": "uint24"
                }
              ],
              "internalType": "struct PoolKey",
              "name": "pool",
              "type": "tuple"
            },
            {
              "internalType": "uint256",
              "name": "sqrtPriceX96",
              "type": "uint256"
            },
            {
              "components": [
                {
                  "internalType": "contract ERC20",
                  "name": "asset",
                  "type": "address"
                },
                {
                  "internalType": "uint256",
                  "name": "liquidity",
                  "type": "uint256"
                }
              ],
              "internalType": "struct AvailableAsset[]",
              "name": "availableAssets",
              "type": "tuple[]"
            }
          ],
          "internalType": "struct Leverage",
          "name": "",
          "type": "tuple"
        }
      ],
      "stateMutability": "nonpayable",
      "type": "function"
    },
    {
      "inputs": [
        {
          "internalType": "address",
          "name": "",
          "type": "address"
        },
        {
          "internalType": "address",
          "name": "",
          "type": "address"
        }
      ],
      "name": "poolFees",
      "outputs": [
        {
          "internalType": "uint24",
          "name": "",
          "type": "uint24"
        }
      ],
      "stateMutability": "view",
      "type": "function"
    },
    {
      "inputs": [
        {
          "internalType": "contract Market",
          "name": "marketDeposit",
          "type": "address"
        },
        {
          "internalType": "contract Market",
          "name": "marketBorrow",
          "type": "address"
        },
        {
          "internalType": "address",
          "name": "account",
          "type": "address"
        },
        {
          "internalType": "uint256",
          "name": "withdraw",
          "type": "uint256"
        },
        {
          "internalType": "uint256",
          "name": "ratio",
          "type": "uint256"
        },
        {
          "internalType": "uint256",
          "name": "minHealthFactor",
          "type": "uint256"
        }
      ],
      "name": "previewDeleverage",
      "outputs": [
        {
          "components": [
            {
              "internalType": "uint256",
              "name": "ratio",
              "type": "uint256"
            },
            {
              "internalType": "uint256",
              "name": "borrow",
              "type": "uint256"
            },
            {
              "internalType": "uint256",
              "name": "deposit",
              "type": "uint256"
            },
            {
              "internalType": "int256",
              "name": "principal",
              "type": "int256"
            },
            {
              "internalType": "uint256",
              "name": "maxRatio",
              "type": "uint256"
            }
          ],
          "internalType": "struct Limit",
          "name": "limit",
          "type": "tuple"
        }
      ],
      "stateMutability": "nonpayable",
      "type": "function"
    },
    {
      "inputs": [
        {
          "internalType": "address",
          "name": "assetIn",
          "type": "address"
        },
        {
          "internalType": "address",
          "name": "assetOut",
          "type": "address"
        },
        {
          "internalType": "uint256",
          "name": "amountIn",
          "type": "uint256"
        },
        {
          "internalType": "uint24",
          "name": "fee",
          "type": "uint24"
        }
      ],
      "name": "previewInputSwap",
      "outputs": [
        {
          "internalType": "uint256",
          "name": "",
          "type": "uint256"
        }
      ],
      "stateMutability": "nonpayable",
      "type": "function"
    },
    {
      "inputs": [
        {
          "internalType": "contract Market",
          "name": "marketDeposit",
          "type": "address"
        },
        {
          "internalType": "contract Market",
          "name": "marketBorrow",
          "type": "address"
        },
        {
          "internalType": "address",
          "name": "account",
          "type": "address"
        },
        {
          "internalType": "uint256",
          "name": "deposit",
          "type": "uint256"
        },
        {
          "internalType": "uint256",
          "name": "ratio",
          "type": "uint256"
        },
        {
          "internalType": "uint256",
          "name": "minHealthFactor",
          "type": "uint256"
        }
      ],
      "name": "previewLeverage",
      "outputs": [
        {
          "components": [
            {
              "internalType": "uint256",
              "name": "ratio",
              "type": "uint256"
            },
            {
              "internalType": "uint256",
              "name": "borrow",
              "type": "uint256"
            },
            {
              "internalType": "uint256",
              "name": "deposit",
              "type": "uint256"
            },
            {
              "internalType": "int256",
              "name": "principal",
              "type": "int256"
            },
            {
              "internalType": "uint256",
              "name": "maxRatio",
              "type": "uint256"
            }
          ],
          "internalType": "struct Limit",
          "name": "limit",
          "type": "tuple"
        }
      ],
      "stateMutability": "nonpayable",
      "type": "function"
    },
    {
      "inputs": [
        {
          "internalType": "address",
          "name": "assetIn",
          "type": "address"
        },
        {
          "internalType": "address",
          "name": "assetOut",
          "type": "address"
        },
        {
          "internalType": "uint256",
          "name": "amountOut",
          "type": "uint256"
        },
        {
          "internalType": "uint24",
          "name": "fee",
          "type": "uint24"
        }
      ],
      "name": "previewOutputSwap",
      "outputs": [
        {
          "internalType": "uint256",
          "name": "",
          "type": "uint256"
        }
      ],
      "stateMutability": "nonpayable",
      "type": "function"
    },
    {
      "inputs": [],
      "name": "uniswapV3Quoter",
      "outputs": [
        {
          "internalType": "contract IUniswapQuoter",
          "name": "",
          "type": "address"
        }
      ],
      "stateMutability": "view",
      "type": "function"
    }
  ],
  "transactionHash": "0xecff30adaed0fed16439a8498ce727e5c327170deaffe997b520e4ad58760f84",
  "args": [
    "0xA5DF45A240eebE3745062c616688a2AafA6a55DA",
    "0xb27308f9F90D607463bb33eA1BeBb41C27CE5AB6"
  ],
  "numDeployments": 1,
  "solcInputHash": "c7205b61ec52d679b6e33ebb6ade6213",
  "bytecode": "0x60c06040523480156200001157600080fd5b50604051620040b9380380620040b9833981016040819052620000349162000065565b6001600160a01b039182166080521660a052620000a4565b6001600160a01b03811681146200006257600080fd5b50565b600080604083850312156200007957600080fd5b825162000086816200004c565b602084015190925062000099816200004c565b809150509250929050565b60805160a051613f7862000141600039600081816101180152818161021c015261108301526000818161015701528181610a510152818161112b01528181611221015281816113f9015281816114ea0152818161167101528181611f22015281816126b3015281816127a90152818161290d015281816129fe01528181612c6b015281816130a2015281816131fa01526133760152613f786000f3fe608060405234801561001057600080fd5b50600436106100935760003560e01c80639241c920116100665780639241c92014610179578063926da1b41461018e578063a9563e4f146101ae578063ecd0cca0146101f2578063fcc5815b1461020557600080fd5b8063372f554f1461009857806337ad93f1146100be5780634d20d0f81461011357806360b3a03314610152575b600080fd5b6100ab6100a636600461369d565b610218565b6040519081526020015b60405180910390f35b6100d16100cc3660046136ee565b610334565b6040516100b59190600060a082019050825182526020830151602083015260408301516040830152606083015160608301526080830151608083015292915050565b61013a7f000000000000000000000000000000000000000000000000000000000000000081565b6040516001600160a01b0390911681526020016100b5565b61013a7f000000000000000000000000000000000000000000000000000000000000000081565b61018c610187366004613859565b610739565b005b6101a161019c366004613948565b6108bb565b6040516100b591906139e8565b6101de6101bc366004613a91565b600160209081526000928352604080842090915290825290205462ffffff1681565b60405162ffffff90911681526020016100b5565b6100d16102003660046136ee565b610c7b565b6100ab61021336600461369d565b611071565b60007f00000000000000000000000000000000000000000000000000000000000000006001600160a01b031663f7729d43868685876102588b8b8a6110bb565b516001600160a01b038c811691161461028f5761028a600173fffd8963efd1fc6a506488495d951d5263988d26613ae0565b61029f565b61029f6401000276a36001613b07565b6040516001600160e01b031960e088901b1681526001600160a01b039586166004820152938516602485015262ffffff9092166044840152606483015291909116608482015260a4016020604051808303816000875af1158015610307573d6000803e3d6000fd5b505050506040513d601f19601f8201168201806040525081019061032b9190613b27565b95945050505050565b6103666040518060a0016040528060008152602001600081526020016000815260200160008152602001600081525090565b6000610373888888611126565b606083018190521215610399576040516342a7200160e11b815260040160405180910390fd5b60006103a688888861166c565b9050816060015185116103e75784826060018181516103c59190613b40565b915081815250506103dd888888856060015187611ef8565b608083015261043e565b808511610425576103f88582613b60565b6060830181905260001261041457670de0b6b3a76400006103dd565b6103dd888888856060015187611ef8565b6040516342a7200160e11b815260040160405180910390fd5b8160800151841161044f5783610455565b81608001515b80835260009061048a908a908a906104859061047a90670de0b6b3a764000090613b60565b606088015190612690565b6126ae565b6104948989612b5f565b61049e9190613b60565b905060006105708a6001600160a01b03166338d52e0f6040518163ffffffff1660e01b8152600401602060405180830381865afa1580156104e3573d6000803e3d6000fd5b505050506040513d601f19601f820116820180604052508101906105079190613b73565b8a6001600160a01b03166338d52e0f6040518163ffffffff1660e01b8152600401602060405180830381865afa158015610545573d6000803e3d6000fd5b505050506040513d601f19601f820116820180604052508101906105699190613b73565b60006110bb565b90508161057d8a8a612b5f565b6105879190613b60565b60208501526001600160a01b038a8116908a16146106a35761069e8a6001600160a01b03166338d52e0f6040518163ffffffff1660e01b8152600401602060405180830381865afa1580156105e0573d6000803e3d6000fd5b505050506040513d601f19601f820116820180604052508101906106049190613b73565b8a6001600160a01b03166338d52e0f6040518163ffffffff1660e01b8152600401602060405180830381865afa158015610642573d6000803e3d6000fd5b505050506040513d601f19601f820116820180604052508101906106669190613b73565b83516001600160a01b0390811660009081526001602090815260408083208289015190941683529290522054859062ffffff16611071565b6106a5565b815b60405163ce96cb7760e01b81526001600160a01b038a811660048301528991908d169063ce96cb7790602401602060405180830381865afa1580156106ee573d6000803e3d6000fd5b505050506040513d601f19601f820116820180604052508101906107129190613b27565b61071c9190613b60565b6107269190613b60565b6040850152509198975050505050505050565b600054610100900460ff16158080156107595750600054600160ff909116105b806107735750303b158015610773575060005460ff166001145b61077c57600080fd5b6000805460ff19166001179055801561079f576000805461ff0019166101001790555b81518351146107b0576107b0613b97565b60005b835181101561086f57600061081c8583815181106107d3576107d3613bad565b6020026020010151600001518684815181106107f1576107f1613bad565b60200260200101516020015186858151811061080f5761080f613bad565b60200260200101516110bb565b60408181015182516001600160a01b039081166000908152600160208181528583209681015190931682529490915291909120805462ffffff191662ffffff9092169190911790559190910190506107b3565b5080156108b6576000805461ff0019169055604051600181527f7f26b83ff96e1f2b6a682f133852f6798a09c465da95921460cefb38474024989060200160405180910390a15b505050565b6108c36135f9565b604051632f2e037160e11b81526001600160a01b03848116600483015260009190861690635e5c06e290602401606060405180830381865afa15801561090d573d6000803e3d6000fd5b505050506040513d601f19601f820116820180604052508101906109319190613bc3565b60405163ce96cb7760e01b81526001600160a01b03888116600483015291945060009350908916915063ce96cb7790602401602060405180830381865afa158015610980573d6000803e3d6000fd5b505050506040513d601f19601f820116820180604052508101906109a49190613b27565b905060006109b488888888612c44565b905060006109c3898989611126565b90506000610a088a6001600160a01b03166338d52e0f6040518163ffffffff1660e01b8152600401602060405180830381865afa1580156104e3573d6000803e3d6000fd5b80516001600160a01b03908116600090815260016020908152604080832082860151851684529091528082205462ffffff16908401529192508b8116908b1614610b4c57610ad77f00000000000000000000000000000000000000000000000000000000000000006001600160a01b0316635b5491826040518163ffffffff1660e01b8152600401602060405180830381865afa158015610aad573d6000803e3d6000fd5b505050506040513d601f19601f82011682018060405250810190610ad19190613b73565b83612f9b565b6001600160a01b0316633850c7bd6040518163ffffffff1660e01b815260040160e060405180830381865afa158015610b14573d6000803e3d6000fd5b505050506040513d601f19601f82011682018060405250810190610b389190613c24565b50506001600160a01b039094169450505050505b60405180610140016040528060008513610b67576000610b71565b610b718786613087565b81526020018b6001600160a01b03166347dffde0896040518263ffffffff1660e01b8152600401610ba491815260200190565b602060405180830381865afa158015610bc1573d6000803e3d6000fd5b505050506040513d601f19601f82011682018060405250810190610be59190613b27565b8152602001868152602001848152602001610c138d8d8d60008913610c0b576000610c0d565b885b8e611ef8565b815260200185871015610c2f57610c2a8787613b60565b610c32565b60005b815260200160008513610c46576000610c51565b610c518d8d8d61166c565b8152602001838152602001828152602001610c6a61309c565b90529b9a5050505050505050505050565b610cad6040518060a0016040528060008152602001600081526020016000815260200160008152602001600081525090565b6000610cbc8888888887613497565b60808501526060840191909152905080841080610cdc5750816080015184115b610ce65783610ce8565b805b8260000181815250506000610d96896001600160a01b03166338d52e0f6040518163ffffffff1660e01b8152600401602060405180830381865afa158015610d34573d6000803e3d6000fd5b505050506040513d601f19601f82011682018060405250810190610d589190613b73565b896001600160a01b03166338d52e0f6040518163ffffffff1660e01b8152600401602060405180830381865afa158015610545573d6000803e3d6000fd5b80516001600160a01b0390811660009081526001602090815260408083208286015190941683529290528190205462ffffff1690820152905085610ddb8a8a8a611126565b610de59190613cb6565b60608401819052600012610e8657610dfd8888612b5f565b602084015260405163ce96cb7760e01b81526001600160a01b0388811660048301528791908b169063ce96cb7790602401602060405180830381865afa158015610e4b573d6000803e3d6000fd5b505050506040513d601f19601f82011682018060405250810190610e6f9190613b27565b610e799190613cde565b6040840152506110679050565b82516060840151610e969161356c565b60408401526001600160a01b038981169089161461103b57611022886001600160a01b03166338d52e0f6040518163ffffffff1660e01b8152600401602060405180830381865afa158015610eef573d6000803e3d6000fd5b505050506040513d601f19601f82011682018060405250810190610f139190613b73565b8a6001600160a01b03166338d52e0f6040518163ffffffff1660e01b8152600401602060405180830381865afa158015610f51573d6000803e3d6000fd5b505050506040513d601f19601f82011682018060405250810190610f759190613b73565b6000898760600151610f879190613b40565b13610f925788610f95565b60005b60405163ce96cb7760e01b81526001600160a01b038c811660048301528e169063ce96cb7790602401602060405180830381865afa158015610fdb573d6000803e3d6000fd5b505050506040513d601f19601f82011682018060405250810190610fff9190613b27565b876040015161100e9190613b60565b6110189190613b60565b8460400151611071565b61102c8989612b5f565b6110369190613cde565b61105f565b825161105f9061105490670de0b6b3a764000090613b60565b606085015190612690565b602084015250505b9695505050505050565b600080831161108157600061032b565b7f00000000000000000000000000000000000000000000000000000000000000006001600160a01b03166330d07f21868685876102588b8b8a5b6040805160608101825260008082526020820181905291810191909152826001600160a01b0316846001600160a01b031611156110f6579192915b50604080516060810182526001600160a01b03948516815292909316602083015262ffffff169181019190915290565b6000807f00000000000000000000000000000000000000000000000000000000000000006001600160a01b0316633ec045a66040518163ffffffff1660e01b8152600401602060405180830381865afa158015611187573d6000803e3d6000fd5b505050506040513d601f19601f820116820180604052508101906111ab9190613b73565b604051638e8f294b60e01b81526001600160a01b0387811660048301529190911690638e8f294b9060240160a060405180830381865afa1580156111f3573d6000803e3d6000fd5b505050506040513d601f19601f820116820180604052508101906112179190613cf1565b94505050505060007f00000000000000000000000000000000000000000000000000000000000000006001600160a01b0316633ec045a66040518163ffffffff1660e01b8152600401602060405180830381865afa15801561127d573d6000803e3d6000fd5b505050506040513d601f19601f820116820180604052508101906112a19190613b73565b604051638e8f294b60e01b81526001600160a01b0387811660048301529190911690638e8f294b9060240160a060405180830381865afa1580156112e9573d6000803e3d6000fd5b505050506040513d601f19601f8201168201806040525081019061130d9190613cf1565b60405163ce96cb7760e01b81526001600160a01b038a8116600483015291965060009550908b16935063ce96cb7792506024019050602060405180830381865afa15801561135f573d6000803e3d6000fd5b505050506040513d601f19601f820116820180604052508101906113839190613b27565b90506000611654886001600160a01b031663313ce5676040518163ffffffff1660e01b8152600401602060405180830381865afa1580156113c8573d6000803e3d6000fd5b505050506040513d601f19601f820116820180604052508101906113ec9190613d68565b6113f790600a613e67565b7f00000000000000000000000000000000000000000000000000000000000000006001600160a01b0316633ec045a66040518163ffffffff1660e01b8152600401602060405180830381865afa158015611455573d6000803e3d6000fd5b505050506040513d601f19601f820116820180604052508101906114799190613b73565b604051631710760b60e31b81526001600160a01b038881166004830152919091169063b883b05890602401602060405180830381865afa1580156114c1573d6000803e3d6000fd5b505050506040513d601f19601f820116820180604052508101906114e59190613b27565b61164d7f00000000000000000000000000000000000000000000000000000000000000006001600160a01b0316633ec045a66040518163ffffffff1660e01b8152600401602060405180830381865afa158015611546573d6000803e3d6000fd5b505050506040513d601f19601f8201168201806040525081019061156a9190613b73565b604051631710760b60e31b81526001600160a01b038981166004830152919091169063b883b05890602401602060405180830381865afa1580156115b2573d6000803e3d6000fd5b505050506040513d601f19601f820116820180604052508101906115d69190613b27565b8b6001600160a01b031663313ce5676040518163ffffffff1660e01b8152600401602060405180830381865afa158015611614573d6000803e3d6000fd5b505050506040513d601f19601f820116820180604052508101906116389190613d68565b61164390600a613e67565b61164d8d8d612b5f565b9190613581565b90506116608183613b40565b98975050505050505050565b6000807f00000000000000000000000000000000000000000000000000000000000000006001600160a01b0316633ec045a66040518163ffffffff1660e01b8152600401602060405180830381865afa1580156116cd573d6000803e3d6000fd5b505050506040513d601f19601f820116820180604052508101906116f19190613b73565b9050611762604051806101600160405280600081526020016000815260200160008152602001600081526020016000815260200160006001600160a01b031681526020016000815260200160008152602001600081526020016000815260200160006001600160a01b031681525090565b60405160016263e28d60e11b031981526001600160a01b03858116600483015283169063ff383ae690602401602060405180830381865afa1580156117ab573d6000803e3d6000fd5b505050506040513d601f19601f820116820180604052508101906117cf9190613b27565b60c082015260006101208201525b60c081015115611d3d5760c081015160011615611d1e576040805160a081018252600080825260208083018290528284018290526060808401839052608084018390528451908101855282815290810182905292830152906101208301516040516308cae55b60e21b815260048101919091526001600160a01b0385169063232b956c90602401602060405180830381865afa158015611881573d6000803e3d6000fd5b505050506040513d601f19601f820116820180604052508101906118a59190613b73565b6001600160a01b039081166101408501819052604051638e8f294b60e01b8152600481019190915290851690638e8f294b9060240160a060405180830381865afa1580156118f7573d6000803e3d6000fd5b505050506040513d601f19601f8201168201806040525081019061191b9190613cf1565b6001600160a01b03908116608088015260ff93909316602087015250506001600160801b0391909116835261014084015160405163014a296f60e01b8152888316600482015291169063014a296f906024016040805180830381865afa158015611989573d6000803e3d6000fd5b505050506040513d601f19601f820116820180604052508101906119ad9190613e76565b602083015281526080820151604051631710760b60e31b81526001600160a01b0391821660048201529085169063b883b05890602401602060405180830381865afa158015611a00573d6000803e3d6000fd5b505050506040513d601f19601f82011682018060405250810190611a249190613b27565b6040820181905282516020840151611a60926001600160801b0390921691611a5a91611a5190600a613e67565b85519190613581565b90612690565b83606001818151611a719190613cde565b905250815160408201516020840151611aaf926001600160801b031691611aa991611a9d90600a613e67565b602086015191906135a0565b906135ce565b83518490611abe908390613cde565b9052506000611acd8888612b5f565b9050876001600160a01b03168461014001516001600160a01b031603611b2557611b1f83600001516001600160801b0316611aa984604001518660200151600a611b179190613e67565b8591906135a0565b60208501525b886001600160a01b03168461014001516001600160a01b031603611d1a57611c6983600001516001600160801b0316611a5a84604001518660200151600a611b6d9190613e67565b600086118015611b8f57508d6001600160a01b03168d6001600160a01b031614155b611b99578561164d565b61164d8e6001600160a01b03166338d52e0f6040518163ffffffff1660e01b8152600401602060405180830381865afa158015611bda573d6000803e3d6000fd5b505050506040513d601f19601f82011682018060405250810190611bfe9190613b73565b8e6001600160a01b03166338d52e0f6040518163ffffffff1660e01b8152600401602060405180830381865afa158015611c3c573d6000803e3d6000fd5b505050506040513d601f19601f82011682018060405250810190611c609190613b73565b886101f4611071565b60808501819052835160408401516020860151611d0a926001600160801b031691611a5a91611c9990600a613e67565b6101408a015160405163ce96cb7760e01b81526001600160a01b038f811660048301529091169063ce96cb7790602401602060405180830381865afa158015611ce6573d6000803e3d6000fd5b505050506040513d601f19601f8201168201806040525081019061164d9190613b27565b611d149190613b60565b60408501525b5050505b61012081018051600190810190915260c08201805190911c90526117dd565b604051638e8f294b60e01b81526001600160a01b038781166004830152831690638e8f294b9060240160a060405180830381865afa158015611d83573d6000803e3d6000fd5b505050506040513d601f19601f82011682018060405250810190611da79190613cf1565b6001600160a01b0390811660a08701526001600160801b0390941660e086018190526040805163313ce56760e01b8152905161106796929550611ef29450918c16925063313ce5679160048083019260209291908290030181865afa158015611e14573d6000803e3d6000fd5b505050506040513d601f19601f82011682018060405250810190611e389190613d68565b611e4390600a613e67565b60a0850151604051631710760b60e31b81526001600160a01b0391821660048201529087169063b883b05890602401602060405180830381865afa158015611e8f573d6000803e3d6000fd5b505050506040513d601f19601f82011682018060405250810190611eb39190613b27565b61164d8660800151876000015188602001518960600151611ed49190613cde565b611ede9190613b60565b611ee89190613b60565b87604001516135e3565b90613087565b6000611f1e60405180606001604052806000815260200160008152602001600081525090565b60007f00000000000000000000000000000000000000000000000000000000000000006001600160a01b0316633ec045a66040518163ffffffff1660e01b8152600401602060405180830381865afa158015611f7e573d6000803e3d6000fd5b505050506040513d601f19601f82011682018060405250810190611fa29190613b73565b60405160016263e28d60e11b031981526001600160a01b03888116600483015291925060009183169063ff383ae690602401602060405180830381865afa158015611ff1573d6000803e3d6000fd5b505050506040513d601f19601f820116820180604052508101906120159190613b27565b905060005b81156123ad5760018216156123a1576040516308cae55b60e21b8152600481018290526000906001600160a01b0385169063232b956c90602401602060405180830381865afa158015612071573d6000803e3d6000fd5b505050506040513d601f19601f820116820180604052508101906120959190613b73565b90506120c86040805160a08101825260008082526020820181905291810182905260608101829052608081019190915290565b6120ec60405180606001604052806000815260200160008152602001600081525090565b604051638e8f294b60e01b81526001600160a01b038481166004830152871690638e8f294b9060240160a060405180830381865afa158015612132573d6000803e3d6000fd5b505050506040513d601f19601f820116820180604052508101906121569190613cf1565b6001600160a01b039081166080880181905260ff9490941660208801526001600160801b039490941686525050604051631710760b60e31b815260048101919091529087169063b883b05890602401602060405180830381865afa1580156121c2573d6000803e3d6000fd5b505050506040513d601f19601f820116820180604052508101906121e69190613b27565b6040828101919091525163014a296f60e01b81526001600160a01b038c8116600483015284169063014a296f906024016040805180830381865afa158015612232573d6000803e3d6000fd5b505050506040513d601f19601f820116820180604052508101906122569190613e76565b6020830152506001600160a01b03808d169084160361236157604051632f2e037160e11b81526001600160a01b038c8116600483015260009190851690635e5c06e290602401606060405180830381865afa1580156122b9573d6000803e3d6000fd5b505050506040513d601f19601f820116820180604052508101906122dd9190613bc3565b60405163023effef60e51b8152600481018290529093506001600160a01b03871692506347dffde09150602401602060405180830381865afa158015612327573d6000803e3d6000fd5b505050506040513d601f19601f8201168201806040525081019061234b9190613b27565b8260200181815161235c9190613b60565b905250505b61238b82600001516001600160801b0316611aa983604001518560200151600a611a9d9190613e67565b8751889061239a908390613cde565b9052505050505b600191821c910161201a565b50604051638e8f294b60e01b81526001600160a01b038a81166004830152831690638e8f294b9060240160a060405180830381865afa1580156123f4573d6000803e3d6000fd5b505050506040513d601f19601f820116820180604052508101906124189190613cf1565b505050506001600160801b03166020840152604051638e8f294b60e01b81526001600160a01b038981166004830152831690638e8f294b9060240160a060405180830381865afa158015612470573d6000803e3d6000fd5b505050506040513d601f19601f820116820180604052508101906124949190613cf1565b505050506001600160801b031660408481019190915251638e8f294b60e01b81526001600160a01b038a8116600483015260009190841690638e8f294b9060240160a060405180830381865afa1580156124f2573d6000803e3d6000fd5b505050506040513d601f19601f820116820180604052508101906125169190613cf1565b9450505050508660000361255e576125536125428560400151866020015161269090919063ffffffff16565b61254c9088613b60565b8790613087565b94505050505061032b565b61268261258487611ef28760400151611a5a89602001518d61269090919063ffffffff16565b61258e9089613b60565b6126788c6001600160a01b031663313ce5676040518163ffffffff1660e01b8152600401602060405180830381865afa1580156125cf573d6000803e3d6000fd5b505050506040513d601f19601f820116820180604052508101906125f39190613d68565b6125fe90600a613e67565b604051631710760b60e31b81526001600160a01b03868116600483015288169063b883b05890602401602060405180830381865afa158015612644573d6000803e3d6000fd5b505050506040513d601f19601f820116820180604052508101906126689190613b27565b6040890151895161164d91612690565b611ef2908a613b60565b9a9950505050505050505050565b60006126a58383670de0b6b3a7640000613581565b90505b92915050565b6000807f00000000000000000000000000000000000000000000000000000000000000006001600160a01b0316633ec045a66040518163ffffffff1660e01b8152600401602060405180830381865afa15801561270f573d6000803e3d6000fd5b505050506040513d601f19601f820116820180604052508101906127339190613b73565b604051638e8f294b60e01b81526001600160a01b0387811660048301529190911690638e8f294b9060240160a060405180830381865afa15801561277b573d6000803e3d6000fd5b505050506040513d601f19601f8201168201806040525081019061279f9190613cf1565b94505050505060007f00000000000000000000000000000000000000000000000000000000000000006001600160a01b0316633ec045a66040518163ffffffff1660e01b8152600401602060405180830381865afa158015612805573d6000803e3d6000fd5b505050506040513d601f19601f820116820180604052508101906128299190613b73565b604051638e8f294b60e01b81526001600160a01b0387811660048301529190911690638e8f294b9060240160a060405180830381865afa158015612871573d6000803e3d6000fd5b505050506040513d601f19601f820116820180604052508101906128959190613cf1565b945050505050611067856001600160a01b031663313ce5676040518163ffffffff1660e01b8152600401602060405180830381865afa1580156128dc573d6000803e3d6000fd5b505050506040513d601f19601f820116820180604052508101906129009190613d68565b61290b90600a613e67565b7f00000000000000000000000000000000000000000000000000000000000000006001600160a01b0316633ec045a66040518163ffffffff1660e01b8152600401602060405180830381865afa158015612969573d6000803e3d6000fd5b505050506040513d601f19601f8201168201806040525081019061298d9190613b73565b604051631710760b60e31b81526001600160a01b038581166004830152919091169063b883b05890602401602060405180830381865afa1580156129d5573d6000803e3d6000fd5b505050506040513d601f19601f820116820180604052508101906129f99190613b27565b61164d7f00000000000000000000000000000000000000000000000000000000000000006001600160a01b0316633ec045a66040518163ffffffff1660e01b8152600401602060405180830381865afa158015612a5a573d6000803e3d6000fd5b505050506040513d601f19601f82011682018060405250810190612a7e9190613b73565b604051631710760b60e31b81526001600160a01b038881166004830152919091169063b883b05890602401602060405180830381865afa158015612ac6573d6000803e3d6000fd5b505050506040513d601f19601f82011682018060405250810190612aea9190613b27565b8a6001600160a01b031663313ce5676040518163ffffffff1660e01b8152600401602060405180830381865afa158015612b28573d6000803e3d6000fd5b505050506040513d601f19601f82011682018060405250810190612b4c9190613d68565b612b5790600a613e67565b899190613581565b604051632f2e037160e11b81526001600160a01b0382811660048301526000918291851690635e5c06e290602401606060405180830381865afa158015612baa573d6000803e3d6000fd5b505050506040513d601f19601f82011682018060405250810190612bce9190613bc3565b60405163023effef60e51b8152600481018290529093506001600160a01b03871692506347dffde09150602401602060405180830381865afa158015612c18573d6000803e3d6000fd5b505050506040513d601f19601f82011682018060405250810190612c3c9190613b27565b949350505050565b604080516080810182526000808252602082018190529181018290526060810182905260007f00000000000000000000000000000000000000000000000000000000000000006001600160a01b0316633ec045a66040518163ffffffff1660e01b8152600401602060405180830381865afa158015612cc7573d6000803e3d6000fd5b505050506040513d601f19601f82011682018060405250810190612ceb9190613b73565b604051638e8f294b60e01b81526001600160a01b03898116600483015291925090821690638e8f294b9060240160a060405180830381865afa158015612d35573d6000803e3d6000fd5b505050506040513d601f19601f82011682018060405250810190612d599190613cf1565b6001600160a01b039081166040888101919091526001600160801b039590951687529351638e8f294b60e01b81528a8516600482015293851693638e8f294b93506024019150612da69050565b60a060405180830381865afa158015612dc3573d6000803e3d6000fd5b505050506040513d601f19601f82011682018060405250810190612de79190613cf1565b6001600160a01b0390811660608801526001600160801b039094166020808801919091526040805163313ce56760e01b81529051612f90968e16955063313ce56794506004808301945090918290030181865afa158015612e4c573d6000803e3d6000fd5b505050506040513d601f19601f82011682018060405250810190612e709190613d68565b612e7b90600a613e67565b6040848101519051631710760b60e31b81526001600160a01b0391821660048201529084169063b883b05890602401602060405180830381865afa158015612ec7573d6000803e3d6000fd5b505050506040513d601f19601f82011682018060405250810190612eeb9190613b27565b84516020860151612f8991612f009190612690565b6060870151604051631710760b60e31b81526001600160a01b039182166004820152611ef291612f82919089169063b883b05890602401602060405180830381865afa158015612f54573d6000803e3d6000fd5b505050506040513d601f19601f82011682018060405250810190612f789190613b27565b611a5a8e8e612b5f565b8a90612690565b91906135a0565b979650505050505050565b600081602001516001600160a01b031682600001516001600160a01b031610612fc657612fc6613b97565b815160208084015160408086015181516001600160a01b0395861681860152949092168482015262ffffff90911660608085019190915281518085038201815260808501909252815191909201206001600160f81b031960a08401529085901b6bffffffffffffffffffffffff191660a183015260b58201527fe34f199b19b2b4f47f68442619d555527d244f78a3297ea89325f843f87b8b5460d582015260f50160408051601f1981840301815291905280516020909101209392505050565b60006126a583670de0b6b3a764000084613581565b606060007f00000000000000000000000000000000000000000000000000000000000000006001600160a01b0316633ec045a66040518163ffffffff1660e01b8152600401602060405180830381865afa1580156130fe573d6000803e3d6000fd5b505050506040513d601f19601f820116820180604052508101906131229190613b73565b6001600160a01b031663375a7cba6040518163ffffffff1660e01b8152600401600060405180830381865afa15801561315f573d6000803e3d6000fd5b505050506040513d6000823e601f3d908101601f191682016040526131879190810190613e9a565b5190508067ffffffffffffffff8111156131a3576131a3613753565b6040519080825280602002602001820160405280156131e857816020015b60408051808201909152600080825260208201528152602001906001900390816131c15790505b50915060005b818110156134925760007f00000000000000000000000000000000000000000000000000000000000000006001600160a01b0316633ec045a66040518163ffffffff1660e01b8152600401602060405180830381865afa158015613256573d6000803e3d6000fd5b505050506040513d601f19601f8201168201806040525081019061327a9190613b73565b6001600160a01b031663232b956c836040518263ffffffff1660e01b81526004016132a791815260200190565b602060405180830381865afa1580156132c4573d6000803e3d6000fd5b505050506040513d601f19601f820116820180604052508101906132e89190613b73565b6001600160a01b03166338d52e0f6040518163ffffffff1660e01b8152600401602060405180830381865afa158015613325573d6000803e3d6000fd5b505050506040513d601f19601f820116820180604052508101906133499190613b73565b90506040518060400160405280826001600160a01b03168152602001826001600160a01b03166370a082317f00000000000000000000000000000000000000000000000000000000000000006001600160a01b031663158274a56040518163ffffffff1660e01b8152600401602060405180830381865afa1580156133d2573d6000803e3d6000fd5b505050506040513d601f19601f820116820180604052508101906133f69190613b73565b6040516001600160e01b031960e084901b1681526001600160a01b039091166004820152602401602060405180830381865afa15801561343a573d6000803e3d6000fd5b505050506040513d601f19601f8201168201806040525081019061345e9190613b27565b81525084838151811061347357613473613bad565b602002602001018190525050808061348a90613f29565b9150506131ee565b505090565b6000806000846134a8898989611126565b6134b29190613cb6565b925060008313156135505760405163ce96cb7760e01b81526001600160a01b03878116600483015261353a9185918891908c169063ce96cb7790602401602060405180830381865afa15801561350c573d6000803e3d6000fd5b505050506040513d601f19601f820116820180604052508101906135309190613b27565b611aa99190613cb6565b91506135498888888688611ef8565b9050613561565b61355e888888600088611ef8565b90505b955095509592505050565b60006126a58383670de0b6b3a76400006135a0565b82820281151584158583048514171661359957600080fd5b0492915050565b8282028115158415858304851417166135b857600080fd5b6001826001830304018115150290509392505050565b60006126a583670de0b6b3a7640000846135a0565b60008183106135f257816126a5565b5090919050565b60405180610140016040528060008152602001600081526020016000815260200160008152602001600081526020016000815260200160008152602001613659604080516060810182526000808252602082018190529181019190915290565b815260200160008152602001606081525090565b6001600160a01b038116811461368257600080fd5b50565b803562ffffff8116811461369857600080fd5b919050565b600080600080608085870312156136b357600080fd5b84356136be8161366d565b935060208501356136ce8161366d565b9250604085013591506136e360608601613685565b905092959194509250565b60008060008060008060c0878903121561370757600080fd5b86356137128161366d565b955060208701356137228161366d565b945060408701356137328161366d565b959894975094956060810135955060808101359460a0909101359350915050565b634e487b7160e01b600052604160045260246000fd5b6040805190810167ffffffffffffffff8111828210171561378c5761378c613753565b60405290565b604051601f8201601f1916810167ffffffffffffffff811182821017156137bb576137bb613753565b604052919050565b600067ffffffffffffffff8211156137dd576137dd613753565b5060051b60200190565b600082601f8301126137f857600080fd5b8135602061380d613808836137c3565b613792565b82815260059290921b8401810191818101908684111561382c57600080fd5b8286015b8481101561384e5761384181613685565b8352918301918301613830565b509695505050505050565b600080604080848603121561386d57600080fd5b833567ffffffffffffffff8082111561388557600080fd5b818601915086601f83011261389957600080fd5b813560206138a9613808836137c3565b82815260069290921b8401810191818101908a8411156138c857600080fd5b948201945b8386101561391a5786868c0312156138e55760008081fd5b6138ed613769565b86356138f88161366d565b8152868401356139078161366d565b81850152825294860194908201906138cd565b9750508701359350508083111561393057600080fd5b505061393e858286016137e7565b9150509250929050565b6000806000806080858703121561395e57600080fd5b84356139698161366d565b935060208501356139798161366d565b925060408501356139898161366d565b9396929550929360600135925050565b600081518084526020808501945080840160005b838110156139dd57815180516001600160a01b0316885283015183880152604090960195908201906001016139ad565b509495945050505050565b6020815281516020820152602082015160408201526040820151606082015260608201516080820152608082015160a082015260a082015160c082015260c082015160e0820152600060e0830151610100613a6c8185018380516001600160a01b0390811683526020808301519091169083015260409081015162ffffff16910152565b8401516101608401525061012083015161018080840152612c3c6101a0840182613999565b60008060408385031215613aa457600080fd5b8235613aaf8161366d565b91506020830135613abf8161366d565b809150509250929050565b634e487b7160e01b600052601160045260246000fd5b6001600160a01b03828116828216039080821115613b0057613b00613aca565b5092915050565b6001600160a01b03818116838216019080821115613b0057613b00613aca565b600060208284031215613b3957600080fd5b5051919050565b8181036000831280158383131683831282161715613b0057613b00613aca565b818103818111156126a8576126a8613aca565b600060208284031215613b8557600080fd5b8151613b908161366d565b9392505050565b634e487b7160e01b600052600160045260246000fd5b634e487b7160e01b600052603260045260246000fd5b600080600060608486031215613bd857600080fd5b8351925060208401519150604084015190509250925092565b805161ffff8116811461369857600080fd5b805160ff8116811461369857600080fd5b8051801515811461369857600080fd5b600080600080600080600060e0888a031215613c3f57600080fd5b8751613c4a8161366d565b8097505060208801518060020b8114613c6257600080fd5b9550613c7060408901613bf1565b9450613c7e60608901613bf1565b9350613c8c60808901613bf1565b9250613c9a60a08901613c03565b9150613ca860c08901613c14565b905092959891949750929550565b8082018281126000831280158216821582161715613cd657613cd6613aca565b505092915050565b808201808211156126a8576126a8613aca565b600080600080600060a08688031215613d0957600080fd5b85516001600160801b0381168114613d2057600080fd5b9450613d2e60208701613c03565b9350613d3c60408701613c03565b9250613d4a60608701613c14565b91506080860151613d5a8161366d565b809150509295509295909350565b600060208284031215613d7a57600080fd5b6126a582613c03565b600181815b80851115613dbe578160001904821115613da457613da4613aca565b80851615613db157918102915b93841c9390800290613d88565b509250929050565b600082613dd5575060016126a8565b81613de2575060006126a8565b8160018114613df85760028114613e0257613e1e565b60019150506126a8565b60ff841115613e1357613e13613aca565b50506001821b6126a8565b5060208310610133831016604e8410600b8410161715613e41575081810a6126a8565b613e4b8383613d83565b8060001904821115613e5f57613e5f613aca565b029392505050565b60006126a560ff841683613dc6565b60008060408385031215613e8957600080fd5b505080516020909101519092909150565b60006020808385031215613ead57600080fd5b825167ffffffffffffffff811115613ec457600080fd5b8301601f81018513613ed557600080fd5b8051613ee3613808826137c3565b81815260059190911b82018301908381019087831115613f0257600080fd5b928401925b82841015612f90578351613f1a8161366d565b82529284019290840190613f07565b600060018201613f3b57613f3b613aca565b506001019056fea2646970667358221220517c8901a5d092cf3eb3bdd6a7f372887395d84fab3ed971f1f74625fb7cb31064736f6c63430008110033",
  "devdoc": {
    "kind": "dev",
    "methods": {
      "constructor": {
        "custom:oz-upgrades-unsafe-allow": "constructor"
      },
      "initialize((address,address)[],uint24[])": {
        "details": "can only be called once."
      },
      "leverage(address,address,address,uint256)": {
        "params": {
          "account": "The account operating with the `DebtManager`.",
          "marketBorrow": "The borrow Market.",
          "marketDeposit": "The deposit Market.",
          "minHealthFactor": "The minimum health factor that the account must have after the leverage."
        },
        "returns": {
          "_0": "extended leverage data."
        }
      },
      "previewDeleverage(address,address,address,uint256,uint256,uint256)": {
        "params": {
          "account": "The account that will be deleveraged.",
          "marketBorrow": "The borrow Market.",
          "marketDeposit": "The deposit Market.",
          "minHealthFactor": "The minimum health factor that the account must have after the leverage.",
          "ratio": "The ratio to be previewed.",
          "withdraw": "The amount of assets that will be withdrawn from the principal."
        }
      },
      "previewInputSwap(address,address,uint256,uint24)": {
        "params": {
          "amountIn": "The exact amount of `assetIn` to be swapped.",
          "assetIn": "The address of the token to be swapped.",
          "assetOut": "The address of the token to receive.",
          "fee": "The fee of the pool that will be used to swap the assets."
        },
        "returns": {
          "_0": "amountOut The amount of `assetOut` received."
        }
      },
      "previewLeverage(address,address,address,uint256,uint256,uint256)": {
        "params": {
          "account": "The account that will be leveraged.",
          "deposit": "The amount of assets that will be added to the principal.",
          "marketBorrow": "The borrow Market.",
          "marketDeposit": "The deposit Market.",
          "minHealthFactor": "The minimum health factor that the account must have after the leverage.",
          "ratio": "The ratio to be previewed."
        }
      },
      "previewOutputSwap(address,address,uint256,uint24)": {
        "params": {
          "amountOut": "The exact amount of `amountOut` to be swapped.",
          "assetIn": "The address of the token to be swapped.",
          "assetOut": "The address of the token to receive.",
          "fee": "The fee of the pool that will be used to swap the assets."
        },
        "returns": {
          "_0": "amountIn The amount of `amountIn` received."
        }
      }
    },
    "stateVariables": {
      "MAX_SQRT_RATIO": {
        "details": "The maximum value that can be returned from #getSqrtRatioAtTick. Equivalent to getSqrtRatioAtTick(MAX_TICK)"
      },
      "MIN_SQRT_RATIO": {
        "details": "The minimum value that can be returned from #getSqrtRatioAtTick. Equivalent to getSqrtRatioAtTick(MIN_TICK)"
      },
      "debtManager": {
        "custom:oz-upgrades-unsafe-allow": "state-variable-immutable"
      },
      "uniswapV3Quoter": {
        "custom:oz-upgrades-unsafe-allow": "state-variable-immutable"
      }
    },
    "title": "DebtPreviewer",
    "version": 1
  },
  "userdoc": {
    "kind": "user",
    "methods": {
      "debtManager()": {
        "notice": "DebtManager contract to be used to get Auditor, BalancerVault and UniswapV3Factory addresses."
      },
      "initialize((address,address)[],uint24[])": {
        "notice": "Initializes the contract."
      },
      "leverage(address,address,address,uint256)": {
        "notice": "Returns extended data useful to leverage or deleverage an account principal position."
      },
      "poolFees(address,address)": {
        "notice": "Mapping of Uniswap pools to their respective pool fee."
      },
      "previewDeleverage(address,address,address,uint256,uint256,uint256)": {
        "notice": "Returns the maximum ratio that an account can deleverage its principal minus `assets` amount."
      },
      "previewInputSwap(address,address,uint256,uint24)": {
        "notice": "Returns the output received for a given exact amount of a single pool swap."
      },
      "previewLeverage(address,address,address,uint256,uint256,uint256)": {
        "notice": "Returns the maximum ratio that an account can leverage its principal plus `assets` amount."
      },
      "previewOutputSwap(address,address,uint256,uint24)": {
        "notice": "Returns the input for an exact amount out of a single pool swap."
      },
      "uniswapV3Quoter()": {
        "notice": "Quoter contract to be used to preview the amount of assets to be swapped."
      }
    },
    "notice": "Contract to be consumed by Exactly's front-end dApp as a helper for `DebtManager`.",
    "version": 1
  },
  "storageLayout": {
    "storage": [
      {
        "astId": 415,
        "contract": "contracts/periphery/DebtPreviewer.sol:DebtPreviewer",
        "label": "_initialized",
        "offset": 0,
        "slot": "0",
        "type": "t_uint8"
      },
      {
        "astId": 418,
        "contract": "contracts/periphery/DebtPreviewer.sol:DebtPreviewer",
        "label": "_initializing",
        "offset": 1,
        "slot": "0",
        "type": "t_bool"
      },
      {
        "astId": 19447,
        "contract": "contracts/periphery/DebtPreviewer.sol:DebtPreviewer",
        "label": "poolFees",
        "offset": 0,
        "slot": "1",
        "type": "t_mapping(t_address,t_mapping(t_address,t_uint24))"
      }
    ],
    "types": {
      "t_address": {
        "encoding": "inplace",
        "label": "address",
        "numberOfBytes": "20"
      },
      "t_bool": {
        "encoding": "inplace",
        "label": "bool",
        "numberOfBytes": "1"
      },
      "t_mapping(t_address,t_mapping(t_address,t_uint24))": {
        "encoding": "mapping",
        "key": "t_address",
        "label": "mapping(address => mapping(address => uint24))",
        "numberOfBytes": "32",
        "value": "t_mapping(t_address,t_uint24)"
      },
      "t_mapping(t_address,t_uint24)": {
        "encoding": "mapping",
        "key": "t_address",
        "label": "mapping(address => uint24)",
        "numberOfBytes": "32",
        "value": "t_uint24"
      },
      "t_uint24": {
        "encoding": "inplace",
        "label": "uint24",
        "numberOfBytes": "3"
      },
      "t_uint8": {
        "encoding": "inplace",
        "label": "uint8",
        "numberOfBytes": "1"
      }
    }
  }
}